:020000040800F2
:1000000000A00020094A0008191B00081D1B000859
:10001000211B0008251B0008291B00080000000008
:100020000000000000000000000000002D1B000880
:10003000311B000800000000351B0008511B0008A0
:100040004D4A00084D4A00084D4A00084D4A000834
:100050004D4A00084D4A00084D4A00084D4A000824
:100060004D4A00084D4A00084D4A00084D4A000814
:100070004D4A00084D4A00084D4A00084D4A000804
:100080004D4A00084D4A00084D4A00084D4A0008F4
:10009000391B00084D4A00084D4A00084D4A000827
:1000A0004D4A00084D4A00084D4A00084D4A0008D4
:1000B0004D4A00084D4A00084D4A00084D4A0008C4
:1000C0004D4A00084D4A00084D4A00084D4A0008B4
:1000D0004D4A00084D4A00084D4A00084D4A0008A4
:1000E0004D4A00084D4A00083D1B00084D4A0008D3
:1000F0004D4A00084D4A00084D4A00084D4A000884
:100100000000000000000000000000004D4A000850
:100110004D4A00084D4A00084D4A00084D4A000863
:100120004D4A00084D4A00084D4A00084D4A000853
:100130004D4A00084D4A0008000000000000000081
:100140004D4A00084D4A00084D4A000800000000D2
:10015000000000000000000000000000000000009F
:1001600000000000000000004D4A00084D4A000851
:100170004D4A0008000000000000000000000000E0
:08018000000000004D4A0008D8
:1001880070B4860746D0541E002A41D0CAB203462E
:1001980002E014F1FF343BD303F8012B9D07F8D19B
:1001A800032C2ED9CDB245EA05250F2C45EA054585
:1001B80019D903F110022646103E0F2E42F8105CA2
:1001C80042F80C5C42F8085C42F8045C02F1100248
:1001D800F2D8A4F1100222F00F0204F00F0410323A
:1001E800032C13440DD91E462246043A032A46F826
:1001F800045BFAD8221F22F003020432134404F0ED
:1002080003042CB1C9B21C4403F8011B9C42FBD166
:1002180070BC704714460346C2E700BF014B012279
:100228001A707047C0000020014B01221A707047F5
:100238007C030020034B9B7A13B1034B05221A6001
:10024800704700BF8C060020C4030020014B042225
:100258001A607047C4030020704700BF154B1A6826
:10026800137803F07F01012905D003F06003202BE8
:100278000DD0022070470628F7D15379002BF8D10A
:100288009378222B14D0212BF3D10B4B08E00138A3
:10029800C0B20828EDD8094B53F82030002BE8D01D
:1002A80010B500249361548220469847204610BD1B
:1002B800034BF5E7AC060020C5040008084B00080E
:1002C800B90400080E4B1968CA78092A0ED8012308
:1002D800934013F4457F09D010B40A4C0A4B52B22C
:1002E800227038B118465DF8044B7047074B20B1AF
:1002F8001846704780230B82F5E780230B827047EE
:10030800AC060020B4000020CC03002050040020DC
:100318000D4B1A68D378023BDBB2072B0AD810B40E
:100328000A490B4CC95C54F8233050B118465DF8A3
:10033800044B7047074B7F2108B11846704711825C
:1003480070471182F3E700BFAC0600202C4B000871
:10035800344B000850040020074B1A68137803F048
:100368007F03212B01D0022070470B28FBD1034BC0
:10037800D2781A6000207047AC0600204C04002098
:1003880009B102207047002814BF022000207047DE
:1003980008B103487047034B1B6801221A82704753
:1003A8004C040020AC06002010B500F045F9054BC0
:1003B8001B6800249C7202F073F903F051FC024B95
:1003C8001C6010BDAC060020C4030020264B274A41
:1003D8001B68D27910B500245A729C72DC722046D0
:1003E80004F002F920464FF4007104F005F92046A4
:1003F800102104F00FF92046182104F0ABF9582118
:10040800204604F097F9204604F060F9184B20467E
:1004180093F82C1004F0D8F9204604F043F94FF46F
:10042800C061012004F0E8F8E021012004F082F91D
:10043800A021012004F08EF94021012004F0B6F932
:100448004021012004F0C0F94FF44051012004F08C
:10045800FBF82021012004F0DDF8204604F0A2F882
:10046800044B01221A6010BDAC060020504A000857
:100478002C000020C4030020014903F0A5BD00BFE3
:1004880024000020014903F09FBD00BF1C0000208C
:10049800054B1B68DB78042B04D8044901EBC30126
:1004A80003F092BD00207047AC06002070000020C9
:1004B800014903F089BD00BF60000020014903F035
:1004C80083BD00BF68000020704700BF30B5012120
:1004D80083B04FF0805003F0A9F80121084603F0DB
:1004E80099F801214FF4001003F088F801214FF426
:1004F800003003F083F840F202334FF4C0526946EB
:100508004FF090408DE80C0003F00CFB0E220B21FD
:100518004FF0904003F072FB0E220C214FF09040F8
:1005280003F06CFB122002F037FE084B0821012271
:100538001846002412251D6059719A711C7102F029
:10054800A3FD204602F028FE03B030BDD4040020ED
:1005580008B5002003F04CF801214FF40000BDE875
:10056800084003F063B800BF024B032200201A6062
:1005780002F012BEC403002008B5012002F098FE64
:1005880002F09EFE104B1870112003F073F800283B
:10059800FAD0012002F0AEFE192003F06BF8002813
:1005A800FAD0022002F0ACFE02F0B4FE0828FBD11B
:1005B800064B9B7A1BB9064B01221A6008BD044BF7
:1005C80005221A6008BD00BFD00400208C06002058
:1005D800C403002010B582B002AC4FF4A06003F051
:1005E800C5F90E4B44F8043D204603F0C9F9012330
:1005F80020462A228DF804208DF805308DF8073022
:1006080003F0BEF90622002320468DF804208DF859
:10061800053003F0B5F902B010BD00BF14020001A7
:100628004FF4804110B9034803F0E4BA014803F0DD
:10063800E3BA00BF001000483D4A3E493E4B1268ED
:1006480009681B68D21872D0100F3C4B092894BF58
:100658003030373010B49870C2F30360092894BF63
:10066800303037301871C2F30350092894BF303046
:1006780037309871C2F30340092894BF30303730BF
:100688001872C2F30330092894BF3030373098729B
:10069800C2F30320092894BF303037301873C2F3EF
:1006A8000310092802F00F0294BF30303730092AAE
:1006B80094BF303237321A740A0F092A94BF303285
:1006C80037329A74C1F30362092A94BF3032373241
:1006D8001A75C1F30352092A4FF0000494BF30324F
:1006E8003732DC7000245C719873002400209A75FE
:1006F800C1F30342092ADC71D8734FF000044FF0AC
:1007080000005C7258744FF000044FF0000094BF72
:1007180030323732DC72D87400241A760020002177
:1007280000225C735875D9755A765DF8044B70478A
:10073800E8F7FF1FECF7FF1FF0F7FF1F000000208E
:1007480070B5044682B00E4615464FF40041204865
:1007580002F0A6FD0128F8D04FF40053A4B200938C
:1007680021464FF080730122194802F081FD0221D1
:10077800174802F095FD0028F9D03146144802F0D8
:1007880089FD8021124802F08BFD0028F9D0002352
:10079800009321464FF0007301220D4802F068FDD6
:1007A80002210B4802F07CFD0028F9D029460848B0
:1007B80002F070FD2021064802F072FD0028F9D0F1
:1007C8000348202102B0BDE8704002F06FBD00BFB1
:1007D8000058004030B58DB0244D8DF807002448EE
:1007E80002F0F6FE01214FF4800002F01FFF012104
:1007F8004FF4003002F002FF042209214FF090402C
:1008080003F0FCF904220A214FF0904003F0F6F9B6
:100818004FF4C062174B039203A94FF09040049322
:1008280003F080F9284602F0C3FC0CA9124B41F8EA
:100838001C3D002428460894069407940A940B94B7
:1008480002F0D4FC2846012102F000FD0A2001F044
:1008580099F92846012102F003FD0DF1070221460E
:10086800D2B27820FFF76CFF0DB030BD00580040C1
:100878002000001002030100CF8DC0102DE9F04FB9
:1008880064208FB001F07EF9AE20FFF7A3FF20208F
:10089800FFF7A0FF1020FFF79DFFB020FFF79AFF9A
:1008A800C820FFF797FF0020FFF794FF1020FFF7FD
:1008B80091FF4020FFF78EFF8120FFF78BFFFF207D
:1008C800FFF788FFA120FFF785FFA620FFF782FF2B
:1008D800A820FFF77FFF3F20FFF77CFFA420FFF74A
:1008E80079FFD320FFF776FF0020FFF773FFD520AD
:1008F800FFF770FFF020FFF76DFFD920FFF76AFFC1
:100908002220FFF767FFDA20FFF764FF1220FFF7C6
:1009180061FFDB20FFF75EFF2020FFF75BFF8D20E4
:10092800FFF758FF9A4CDFF87C929A4D1420FFF796
:1009380051FFAF20FFF74EFF4FF400720021204611
:10094800FFF71EFC0DF1110B0DF112020DF113034F
:100958005FFA8BF1D2B2DBB25FFA84FA01910292AC
:1009680003934FF0B00B48468DF813B002F030FEF9
:1009780001214FF4800002F059FE01214FF40030AC
:1009880002F03CFE042209214FF0904003F036F9B2
:1009980004220A214FF0904003F030F94FF4C06868
:1009A8007D4FCDF8148005A94FF09040069703F0CD
:1009B800B9F82846002402F0FBFB784E0A9407A9F0
:1009C8002846089409940C940D94079602F00EFC9E
:1009D8000121284602F03AFC0A2001F0D3F801214F
:1009E800284602F03DFC039A21467820FFF7A8FE2E
:1009F80048468DF8124002F0EBFD01214FF48000CB
:100A080002F014FE01214FF4003002F0F7FD042239
:100A180009214FF0904003F0F1F804220A214FF029
:100A2800904003F0EBF805A94FF09040CDF8148002
:100A3800069703F077F8284602F0BAFB07A928467C
:100A48000A94089409940C940D94079602F0CEFB2E
:100A58000121284602F0FAFB0A2001F093F801214F
:100A6800284602F0FDFB2146029A7820FFF768FE2F
:100A7800102248468DF8112002F0AAFD01214FF4FA
:100A8800800002F0D3FD01214FF4003002F0B6FDE2
:100A9800042209214FF0904003F0B0F804220A2103
:100AA8004FF0904003F0AAF805A94FF09040CDF818
:100AB8001480069703F036F8284602F079FB07A958
:100AC80028460A94089409940C940D94079602F009
:100AD8008DFB0121284602F0B9FB0A2001F052F8EB
:100AE8000121284602F0BCFB019A21467820FFF735
:100AF80027FE484602F06CFD01214FF4800002F009
:100B080095FD01214FF4003002F078FD04220921FF
:100B18004FF0904003F072F804220A214FF0904001
:100B280003F06CF805A94FF09040CDF814800697B3
:100B380002F0F8FF284602F03BFB07A92846079673
:100B48000A94089409940C940D9402F04FFB012127
:100B5800284602F07BFB642001F014F88021284627
:100B680002F07EFB524640217820FFF7E9FD0BF1A9
:100B780001035FFA83FBBBF1B80F8AF0800A7FF4A8
:100B8800F2AE074B01201C6058710FB0BDE8F08F22
:100B98007C0100200058004002030100CF8DC010E6
:100BA80074010020200000102DE9F04F9349DFF870
:100BB8005C92934D8FB00DF1110B0DF112020DF1F6
:100BC80013035FFA81FAD2B25FFA8BF1DBB20191BB
:100BD800029203934FF0B00B48468DF813B002F021
:100BE800F7FC01214FF4800002F020FD01214FF4B1
:100BF800003002F003FD042209214FF0904002F07A
:100C0800FDFF04220A214FF0904002F0F7FF4FF455
:100C1800C0687C4FCDF8148005A94FF09040069726
:100C280002F080FF2846002402F0C2FA764E0A94A9
:100C380007A92846089409940C940D94079602F085
:100C4800D5FA0121284602F001FB0A2000F09AFF9C
:100C58000121284602F004FB039A21467820FFF779
:100C68006FFD48468DF8124002F0B2FC01214FF4A6
:100C7800800002F0DBFC01214FF4003002F0BEFCE2
:100C8800042209214FF0904002F0B8FF04220A2103
:100C98004FF0904002F0B2FF05A94FF09040CDF818
:100CA8001480069702F03EFF284602F081FA07A951
:100CB80028460A94089409940C940D94079602F017
:100CC80095FA0121284602F0C1FA0A2000F05AFFDD
:100CD8000121284602F0C4FA2146029A7820FFF73B
:100CE8002FFD102248468DF8112002F071FC0121D9
:100CF8004FF4800002F09AFC01214FF4003002F01A
:100D08007DFC042209214FF0904002F077FF042275
:100D18000A214FF0904002F071FF05A94FF0904072
:100D2800CDF81480069702F0FDFE284602F040FA3E
:100D380007A928460A94089409940C940D940796D8
:100D480002F054FA0121284602F080FA0A2000F045
:100D580019FF0121284602F083FA019A21467820DA
:100D6800FFF7EEFC484602F033FC01214FF4800007
:100D780002F05CFC01214FF4003002F03FFC042239
:100D880009214FF0904002F039FF04220A214FF068
:100D9800904002F033FF05A94FF09040CDF8148041
:100DA800069702F0BFFE284602F002FA07A9284675
:100DB80007960A94089409940C940D9402F016FA74
:100DC8000121284602F042FA642000F0DBFE80216F
:100DD800284602F045FA524640217820FFF7B0FC39
:100DE8000BF101035FFA83FBBBF1B80F8AF0800AAD
:100DF8007FF4F2AE0FB0BDE8F08F00BF7C01002099
:100E08000058004002030100CF8DC01020000010E0
:100E18002DE9F04F8BB00AAC04E906007C4A9DF836
:100E280020401288069011197F2907917DDC7848A7
:100E38009DF82110408801910546029008466918DE
:100E48001F2972DC002868D0714906980F79099922
:100E58000091002B0DBF0125002501260026002F3B
:100E68000199DFF8B0C118BF2B46A0F12000059307
:100E7800009B01FB00F003EB40030CBF2946314601
:100E88000491D2B200934FF0000B8021009B33F8FD
:100E9800020B0093002C3BD0029B0BEB0305EDB239
:100EA80005F00703012606FA03F35BB21F2D03932F
:100EB8006FEA030E4FEAD5032AD8059DB542049D73
:100EC80037D0002D5DD12F460AE0360605D41CF830
:100ED8000A500EEA05050CF80A500137BC4217D033
:100EE800D619354600FA07F8F6B2EDB218F4004FF5
:100EF80011FB036A11FB0359E7D02D06EDD41CF84A
:100F0800095001370EEA0505BC420CF80950E7D133
:100F1800019B0BF1010B9B45B8D13D4BBDF81C2043
:100F280006981A800BB0BDE8F08F00200BB0BDE822
:100F3800F08F002D48D12F46D619354600FA07F80C
:100F4800F6B2EDB218F4004F11FB036A11FB035916
:100F58000BD0360605D41CF80A50039E35430CF80E
:100F68000A500137BC42E7D1D2E72D06F9D41CF864
:100F7800095001370EEA0505BC420CF80950DBD1CF
:100F8800C6E700270AE0360605D41CF809500EEA21
:100F980005050CF809500137BC42B9D0D6193546B9
:100FA80000FA07F8F6B2EDB218F4004F11FB036926
:100FB80011FB035AE7D12D06EDD41CF80A50039E05
:100FC80035430CF80A50E6E700270AE0360605D450
:100FD8001CF80850039E35430CF808500137BC42F2
:100FE80096D0D619354600FA07FEF6B2EDB21EF4D1
:100FF800004F11FB036811FB0359E7D02D06EDD410
:101008001CF80950039E35430CF80950E6E700BF69
:10101800740100207C01002070B50446007882B07D
:101028008DE8060080B16D461E4602E014F8010FF7
:1010380050B1334695E80600FFF7EAFE2378984258
:10104800F4D0184602B070BD0023184602B070BD37
:10105800014B1880598070477401002038B5002072
:1010680001F04AF901F0FCF9012802D0022815D054
:1010780038BD0624642000F085FDFF2001F03CF90E
:10108800642000F07FFD002001F036F9631E13F0A4
:10109800FF04EFD1BDE8384000F0ECBD194C2078D2
:1010A80001F0BAFD002001F009FE0028FAD105463A
:1010B800207801F0B1FD01F0D3F9012815D00228FC
:1010C800F6D100F0CFFE0625642000F05BFD207805
:1010D80001F0A2FD642000F055FD002001F00CF99C
:1010E8006B1E13F0FF05EFD138BD23780133DBB257
:1010F800072B4FF0000094BF2370257001F0FCF817
:10110800D6E700BF7E030020F8B53E4C23785BB2DB
:10111800023B072B0FD8DFE803F0520E310E0E0EFC
:101128001404394B394A03F1380013F8011B02F84B
:10113800011B8342F9D1FF232370354B00221A602B
:10114800F8BD314A334B117855789078D6781279B2
:10115800DE701A71B3F803201970642A5D709870F4
:1011680084BF2D4B1A602D4B1A78FF21217012BBBA
:1011780001221A70264B00221A60F8BD224B284D16
:10118800187893F801E09F78DE781A792A715A79ED
:101198006A719979DA792870FF23A888A97185F886
:1011A80001E0AF70EE70EA71237000F0F3FCE9889B
:1011B800E87800F0CBFE164B00221A60F8BD124A00
:1011C800184B157892F801E09778D678117950790C
:1011D80092799A715871B3F805001D70124D83F811
:1011E80001E0CAB264284FF0FF019F70DE701A71E7
:1011F8002A802170DFD9084B1860054B00221A603D
:10120800F8BD00BFB4000020CC0300202805002052
:10121800BC03002038060020C40000207D03002005
:10122800F4050020EC050020C200002008B5FFF7F7
:101238004DF9FFF78DF9FFF7CDF902F0F5FC024AF9
:101248001368052BFCD108BDC4030020394A3A496C
:1012580012883A483A4BF0B53A4C3B4DA1F8052074
:101268002D88A4F803204122CA700D71002202259E
:101278000D704A708A7008212170C1706270A27066
:1012880032494160042404704270827030485860CA
:1012980049216D205972587334216FF04800197430
:1012A80058746FF05F0101209D7219735A709A701B
:1012B800DA701A72DA72DA739A74987359765977FF
:1012C8006FF0050159754FF07E5119622149224E80
:1012D800DFF888E05E6200270925C3F828E0DF62AE
:1012E8001F634FF0670E5F631D7012270526087095
:1012F80006252820DA741A759A75DA759A76DA76D8
:101308009A77DA774A70C1F8022081F8384081F874
:10131800392081F83B2081F83D2081F806E0CF7123
:1013280081F83A6081F83C5018761877BDE8F040AB
:1013380000F0DABDC4000020EC050020F405002010
:101348002805002038060020C2000020E803C40950
:1013580000052003DC040020AE47613E8FC2753EC5
:101368002DE9F043D24BD34CD34821881A78D34B7C
:1013780006885980002001310125013A2180DE804C
:101388005D7018715871062A00F22D82DFE812F09C
:101398005400A700F60049019E01E3010700C84D6B
:1013A800C84E6A68A9683068B4687668DFF818E3D8
:1013B8002D68BEF804705242C2F3C53C40424CEA64
:1013C800811C83F80DC0C0F3C53C4CEA841C7642EE
:1013D80083F815C04FEAE21C5200DA7372131A74CC
:1013E80072115A74C4F3824242EAC606C1F38242B9
:1013F80042EAC5029E74C61140004FEA65387F4232
:1014080083F80EC09E754FEAA12CA6126D11D875EF
:1014180089109A72BEF8020083F80880A210BEF8FC
:1014280000405D7283F80BC01973DE741A759F87CC
:101438001C875887BDE8F083A14AA24D946851687B
:10144800A8681668DFF880C2644224CDC4F3C53E9C
:1014580040424EEA811E83F80DE0C0F3C53E764255
:101468004EEA821E83F815E04FEA663E83F808E0EC
:101478004FEA661E83F809E0C1F3824E4EEAC606BB
:10148800BCF80280BCF80070BCF804E09E724FEA19
:10149800E41C6400DC73C4119C75C2F382444000F0
:1014A80044EAC504C8F100067F424FEAA12883F840
:1014B8000EC0D87589109C744FEA653C9412681167
:1014C800921083F80B80197383F810C05874DC7479
:1014D8001A751F879E87A3F83AE0BDE8F083784E17
:1014E800784DB0686A68A9682D68DFF8DCE150CEED
:1014F8004042C0F3C53C52424CEA841C83F80DC0FC
:10150800C2F3824C49424CEAC50C83F812C0C1F3BD
:10151800C53C4CEA821C83F815C04FEAE01C400029
:10152800D8739012BEF80270D8749210C4F3824037
:1015380040EAC6001A75CA1149004FEA66394FEAEF
:10154800A4287F4283F80EC09A757611A210D97527
:1015580098724FEA653C6911BEF80440BEF8000075
:1015680083F808905E7283F80B801A7383F810C0B2
:1015780059749F871C875887BDE8F083504D5148A0
:101588002A68AC686D688168DFF83CC152426D42D8
:10159800C2F3824E64424EEAC50E41C883F80AE09F
:1015A800C4F3C53E49424EEA821E83F80DE0C1F3FA
:1015B800C53E4EEA861E83F815E04FEA653EBCF844
:1015C8000470BCF8028083F808E0BCF800E04FEA39
:1015D800A22C9210404283F80BC01A73C6F3824CB7
:1015E800E2116D1164004CEAC00C9A734213401169
:1015F8007F425D72CEF1000EC8F10005DC731A74EB
:10160800CC1158744900B012B21083F812C09C75FE
:10161800D975D8741A751F87A3F83AE09D87BDE875
:10162800F0832748274D0268816840682E68AC68B7
:101638006D68DFF894E05242C2F3C537404247EA8A
:1016480081175F7347131F7247115F72C1F3824797
:1016580047EAC00076429872D0115200DA737213CA
:101668001A7472115A74C4F3824242EAC606C5F368
:10167800C53242EA8412BEF804709873BEF80000BE
:101688005A758A1289107F42BEF802E09E74404261
:10169800A612DA721973A2106900EC11DE741A75B9
:1016A8009C75D9751F879887A3F83AE0BDE8F08341
:1016B8007E0300208003002060050020DC04002059
:1016C8001C050020400600206405002069486A4D7A
:1016D800426886680068A9682C686D68674F52423E
:1016E800C2F3C53E4EEA861E83F815E04FEAE21EB5
:1016F8005200DA75C6F3824242EAC0029A74C1F314
:10170800824242EAC5029A72C4F3C53242EA8112A1
:101718005A736A136D111A725D728A12E511891073
:1017280064004FEA603C83F816E0DA7240111973DE
:101738004FEAA62EB2109D73DC73BD887C88398869
:1017480083F810C0587483F813E01A751D875C87F6
:101758009987BDE8F083484A4648156891685468F7
:10176800826806684068454F6D424FEA653C83F8D9
:1017780008C04FEA651C83F809C0C1F3824C4CEAE3
:10178800C5059D72C4F3C53545EA81155D73C2F37D
:10179800824545EAC0059D74C6F3C53545EA8215FC
:1017A8005D758D128910B7F800E01973E11199730E
:1017B8006400411340114FEAA22CCEF1000EDD72F5
:1017C800DC7392101974F511710058747C88B8880C
:1017D80083F813C01A759D75D975A3F838E05C872E
:1017E8009887BDE8F0832348234D416802688468E0
:1017F800DFF888E049425242C1F3824747EAC2070C
:1018080095E841009F74571352115A748A12DA747A
:101818008A1076421A75C4F3C532AD681F7442EA5D
:10182800811172131A727211BEF8047059755A72C6
:10183800C5F3C531C0F3824242EAC60641EA8011C7
:1018480082104FEAA02C7F42E0119E725973EE116C
:1018580064006D001A73BEF80010BEF8022083F809
:101868000BC09E73DD739875DC751F8759879A873F
:10187800BDE8F083400600201C0500206405002018
:101888002DE980488B4C8C4D8C4F8D4EDFF870A223
:10189800DFF87082DFF87092DFF870B283B0FEF77D
:1018A800EDFF642000F06EF923796279216885489C
:1018B80043EA02220123FFF7AFFBFFF775F9284639
:1018C80001F030FD6B688048804A8149814DA0FB5A
:1018D80003039B09F020013B536081F82300002398
:1018E8000721936001931160FFF7A0FC00F0F6FC5C
:1018F800FFF7ACFC784B988800F04CF9764BD98808
:10190800D87800F023FB89E0012B24D100F00EFDEC
:1019180000F0D4FB002840F0B78000F03FFC00281E
:1019280040F0A68000F088FC002840F0A9806B4BAE
:101938001B7833B16A4B6B4A1B6812889A4240F293
:10194800A980694B1A68DBF800309A4284BF9DF879
:10195800043088F80030FEF791FF642000F012F997
:1019680000210846FFF774FB2379627921685F48F4
:1019780043EA02220123FFF74FFB00210520FFF76E
:1019880067FB237962792168B9F9000043EA0222EA
:101998000123FFF741FB01210020FFF759FB2379C1
:1019A80062792168286843EA02220123FFF734FBA1
:1019B80001210420FFF74CFB23796279216843EA6F
:1019C80002222C200123FFF723FA01210520FFF72B
:1019D8003FFB237962792168686843EA0222012380
:1019E800FFF71AFB01210820FFF732FB2379627900
:1019F800216843EA02222C200123FFF709FA01217A
:101A08000920FFF725FB237962792168A86843EA52
:101A180002220123FFF700FBFFF7C6F83B78CBB99A
:101A280033781B0607D433789AF800205BB29342C8
:101A38001BD0FF233370002001F040F938B998F823
:101A48000030002B7FF460AF00F09AFC83E7FFF7CB
:101A580005FBF4E72649012002F02AF9012002F0EB
:101A680021FE9DF804303B70DAE7FFF74DFBE2E713
:101A7800204800F099FB00F0DFFB00283FF457AF47
:101A88001D4800F0DFFB52E7124800F023FBA9F8DD
:101A9800000042E7114B01991970114B1960FFF7CB
:101AA8005FFC3E221549812002F0EEF8012002F089
:101AB800E5FD46E7B8000020FC0500207C03002077
:101AC800B4000020B0580008D34D621010E000E0C8
:101AD80000ED00E040060020F4050020C0000020D2
:101AE800B8030020C2000020BC030020B85800083A
:101AF8006C0500201C05002064050020DC04002083
:101B0800CC0300207D03002060050020C4000020D5
:101B1800704700BFFEE700BFFEE700BFFEE700BF5B
:101B2800FEE700BF704700BF704700BF704700BFA7
:101B380000F0BABC08B5002000F0DAFD1220BDE8BC
:101B4800084001F029BB00BF10B40A4C0A482368BA
:101B58000A490B4A013323600368013303600B68A9
:101B680001330B60136813B11368013B13605DF810
:101B7800044B7047BC030020B8030020B4030020C6
:101B8800B0030020024A10601368002BFCD1704794
:101B9800B0030020F0B52E4F85B00826C0250724D5
:101BA800302180220023B0F5FA7F38808DF8086054
:101BB8008DF809508DF80A408DF80B108DF80C201F
:101BC8008DF80D3037D0B0F57A7F34D0FA2827D089
:101BD800204B2148214A224C1A6020215A609A60E1
:101BE80004608DF80E1004AC012502A800F040FE38
:101BF80004F8095D2A462046222100F005FF402608
:101C080020462A4624218DF8076000F0FDFE204674
:101C18002A462E218DF8076000F0F6FE05B0F0BDCB
:101C28000C4A0D480F49104C8DF80E301160516068
:101C380091600460D7E7074B07480C4A0C4C1A60C0
:101C480010215A609A6004608DF80E10CBE700BF2F
:101C5800640600206C06002068060020167A4341BE
:101C680084030020167AC33F90030020167A43406D
:101C78009C0300202DE9F0472DED088B86B0FA2152
:101C88004FF4FA724FF4FA63684F694D694C9FED4F
:101C98006ABAADF804104FF00009ADF80620ADF8A7
:101CA80008304FF000080DF1040AA28ADFED639AAC
:101CB8004FF4807302F00F0203FA08F313439BB248
:101CC800A3823AF81800FFF765FF3B68B0EE69AAEF
:101CD800F0EE69AAC3F80090C3F80490C3F808901E
:101CE80040F6B9360221204601F07EFF034600285F
:101CF800F8D10622282103A80393ADF8103000F08C
:101D0800F7FE9DF80F009DF80E209DF80DC09DF878
:101D18000C109DF811E09DF81030D5ED003A95EDC6
:101D2800014AD5ED024A02EB002212B206EE102A51
:101D380001EB0C2103EB0E2309B21BB2386807EE46
:101D4800901AF8EEC65A06EE103AB8EEE75AD0EDF9
:101D5800006A90ED017AD0ED027AB8EEC66AD5EE47
:101D6800236A0122262195EE847A03A8D6EE247AE6
:101D7800BDEEE69AFDEEC78ABDEEE78A00F0B8FE32
:101D8800F8EEC96AB8EEE87AF8EEC87A013E7AEE5B
:101D9800A6AA3AEE07AA79EEA79AA3D1CAEE8B6A49
:101DA8003B6808F10108B8F1030F8AEE0B7AC9EE17
:101DB8008B7AC3ED006A83ED017AC3ED027A7FF472
:101DC80074AF1F491F4A204B03910492059301F0F9
:101DD80075FC342001F0ACFD1C481D4D1D4F01F071
:101DE80085FC1D49194803AC01F0F6FC05F10C0609
:101DF80023681A1D284619682260043501F0ECFC96
:101E0800B542F5D1BD4204F10404EFD1134B284685
:101E1800197801F0E1FC01F061FC114B1888FFF71B
:101E2800B9FE06B0BDEC088BBDE8F0876806002057
:101E38006C0600200010004800903B4500000000A0
:101E4800900300209C030020840300200060000809
:101E58000460000828600008EFBEADDE7E030020A5
:101E680064060020F0B585B01749184A184B01914F
:101E78000292039301F022FC342001F059FD154829
:101E8800154C164F01F032FC1549124801F0A4FC1C
:101E980001AD04F10C062B6820461A1D19682A604A
:101EA800043401F099FCA642F5D1BE4205F10405BF
:101EB800EFD10C4B3046197801F08EFC05B0BDE827
:101EC800F04001F00BBC00BF900300209C030020F1
:101ED80084030020006000080460000828600008EF
:101EE800EFBEADDE7E0300200E4A0F4B12689A4209
:101EF80016D1F0B40D4A0E4F0E4E0F4D0F4C104B2D
:101F080007CA87E8070096E8070085E8070094E80D
:101F1800070083E807000B4A0B4B12681A70F0BCE5
:101F2800704700BF00600008EFBEADDE0460000827
:101F380090030020106000089C0300201C6000082B
:101F480084030020286000087E030020F0B50646C0
:101F580085B00F460024012507E000F05DFE01343E
:101F6800E4B26D00082CEDB206D02E422046F4D122
:101F7800204600F05DFEF2E701F004F840F2145349
:101F8800802118229F428DF804108DF8052052D028
:101F980040F26C739F4258D0B7F55C7F4BD03B4BF7
:101FA8003B493C4A596060211A609A608DF80710D5
:101FB800002401A88DF8064000F030FF0723902286
:101FC800042E8DF80A308DF808408DF80920324B20
:101FD80054D0082E4AD0022E41D0304A1A603021FF
:101FE8005A609A608DF80E10082304AC0DEB0300BC
:101FF800802500228DF80D208DF80B308DF80C50BF
:1020080000F0EAFE102304F80D3D2221224632207A
:1020180000F05EFE40232246242132208DF8033052
:1020280000F056FE22462E2132208DF8035000F093
:102038004FFE05B0F0BD154B19491A4A59602021C9
:102048001A609A608DF80710B2E7104B1649174AC4
:10205800596040211A609A608DF80710A8E7144A61
:102068008DF80E401A605A609A60BDE7114A1A60EE
:1020780020215A609A608DF80E10B5E70E4A1A6052
:1020880010215A609A608DF80E10ADE758060020AE
:102098005555854154CE6E414C060020891993420E
:1020A800EB4323415D741141BD8652416F223B4190
:1020B8000C22C4400C22C4410C22444108B5022120
:1020C800034801F091FDB0FA80F0400908BD00BF57
:1020D80000100048F0B583B0044600236846062285
:1020E8002821ADF80430009300F002FD9DF80100AE
:1020F8009DF800109DF803709DF802209DF805607A
:102108009DF80430234D01EB002109B207EE901A27
:1021180002EB072212B2F8EEE76A03EB062307EE9A
:10212800902A1BB22D681C4895ED005AD0ED003A54
:1021380090ED014AD0ED024AD5ED015A95ED026ABB
:10214800B8EEE77A07EE903AF8EEE77A93EEA65AF9
:1021580068460122D4EE075A262197EEA46AFDEEBE
:10216800C56ABDEEE57AFDEEC67AC4ED006A84ED77
:10217800017AC4ED027A00F0BBFC9DF80000C0F1C2
:10218800280000EB800000EB8000800000B203B064
:10219800F0BD00BF680600206C0600201021014831
:1021A80001F022BD00100048F0B583B004466A462D
:1021B80006232821322000F053FE9DF801709DF877
:1021C80000109DF803609DF802209DF805509DF8C9
:1021D8000430184801EB072102EB062203EB052324
:1021E80009B212B21BB206EE901A07EE102A07EED9
:1021F800903A90ED005AD0ED015A90ED026AF8EE4F
:10220800E66AB8EEC77AF8EEE77A66EE856A27EEF0
:10221800257A67EE867AFDEEE66ABDEEC77AFDEEB0
:10222800E77AC4ED006A84ED017AC4ED027A03B05E
:10223800F0BD00BF4C0600200421014801F0D4BCC9
:1022480000100048F0B583B004466A46062303210F
:102258003C2000F005FE9DF800709DF801109DF8E7
:1022680002609DF803209DF804509DF805301A4837
:1022780041EA072142EA062243EA052309B212B2DB
:102288001BB206EE901A07EE102A07EE903A90ED70
:10229800005AD0ED015A90ED026AF8EEE66AB8EEFF
:1022A800C77AF8EEE77A66EE856A27EE257A67EE52
:1022B800867AFDEEE66ABDEEC77AFDEEE77A16EE9F
:1022C800901A17EE102A17EE903A002021806280AB
:1022D800A38003B0F0BD00BF5806002010B500244D
:1022E800E0B2013400F078FC082CF9D1002108464E
:1022F800BDE8104000F0A8BC70B5064601250024D2
:102308002E42204608D00134E4B200F085FC6D006E
:10231800082CEDB2F4D170BD20460134E4B200F0CF
:1023280087FC6D00082CEDB2EAD170BD1049114B45
:102338000A68A3FB020310B49B094FF47A74501C7B
:1023480004FB1323086083B90B4A0C4913785B001C
:102358005BB2002BA8BF43F00103DBB213708A8A7B
:1023680002F00F0242EA03238B825DF8044B7047A8
:10237800A8030020D34D6210AD03002000100048D0
:1023880033490B88013B9BB2F0B4002B44D0314A4F
:102398000B8031481378017857789678D5788B4236
:1023A80094BF0023012343F002048F4288BF2346D1
:1023B80043F004048E4288BF234643F008048D424C
:1023C80088BF2346177956799479D57943F0100256
:1023D8008F4288BF134643F020028E4288BF1346BF
:1023E80043F040028C4288BF13464A1C43F08004E5
:1023F800D2B28D428CBF214619463F2A94BF027043
:102408000023164A88BF0370938A03F00F0343EA38
:1024180001239382F0BC70470E4A1578D2F8016008
:10242800D47D907D577D166046F2A813D2F81160CE
:10243800D5759475D2F80D50D2F809405075D2F878
:10244800050017751661D560946050600B80A0E791
:10245800C0030020C8000020AC0300200010004882
:1024680010B5002000F02AFCC8B10E4C32232360BE
:1024780020680028FCD100F021FC80B14FF47A7369
:10248800236001E0236823B1002000F017FC002836
:10249800F8D12368002B14BF0120022010BD0020B2
:1024A80010BD00BFB003002038B5344B344C1B6856
:1024B800344D9BB2238022882B881A40120442D4C0
:1024C800228802F48062134245D1228802F4005225
:1024D800134203D0294A4DF6FF711160228802F495
:1024E8008052134240D1228802F4006213420AD07B
:1024F800254B1B78DBB9022000F0FAF81F4B4FF28E
:10250800FF721A602B88228802F40072134208D0E6
:102518001A4A1E494FF6FF5010600A780132D2B2AB
:102528000A70228802F48072134203D138BD00F089
:10253800CFF8E3E7114B4FF6FF621A600720BDE8BA
:10254800384000F0D5B802F077F922882B8802F4D9
:1025580080621342B9D0094A0D4B4FF6FF315B68D0
:10256800116098472B88B0E7044B4EF6FF721A604B
:10257800002000F0BDF82B88B5E700BF445C0040A0
:1025880078060020B006002018010020C2030020B1
:102598002C00002010B43D4C3D4BD4F888003D4A37
:1025A8003D4940F47000C4F88800186840F0010004
:1025B8001860586802405A601A6822F0847222F43F
:1025C80080321A601A6822F480221A605A6822F44B
:1025D800FE025A60DA6A22F00F02DA62186B83B0E0
:1025E8000022014019639A60009201921A6842F42D
:1025F800A0221A601A4603E0009BB3F5A06F09D029
:10260800136803F400330193009B01330093019B8B
:10261800002BF1D01E4B1B6813F4003318BF0123A5
:102628000193019B012B07D0184B4FF000629A6071
:1026380003B05DF8044B7047184A154B122111601E
:102648005A685A605A685A605A6842F480625A60F6
:102658005A6822F47C125A605A6842F4E8125A60A6
:102668001A6842F080721A601A689201FCD559689B
:10267800074A21F003015960596841F00201596085
:10268800536803F00C03082BFAD1CDE700ED00E006
:10269800001002400CC07FF8CCFC00FF0020024074
:1026A80038B50120FDF7BCFF064D074B074C00224B
:1026B8004FF4E051012018601A6010462A6021800A
:1026C800196038BD445C0040405C0040B006002002
:1026D800064A13689BB243F00803136013689BB261
:1026E80043F004031360FDF73FBF00BF405C0040A8
:1026F80038B52A4C072818BF20702378052B49D8ED
:10270800DFE803F013212F343D036378013BDBB28C
:1027180063706378002B3FD1214A11684FF6EF733D
:102728000B4006211360217038BD1D4D2A684FF6F5
:10273800FB7313402B60FDF71FFF4FF43F42062346
:102748002A60237038BD164D2A684FF6FB73134074
:102758002B60FDF711FF4FF43F4204232A602370DA
:1027680038BD022203236270237038BD6378013BB1
:10277800DBB2637063787BB90423237038BD084AE1
:1027880013689BB243F0100305200A2113602070E0
:10279800617038BD0623237038BD00BF7C06002059
:1027A800405C0040F8B506460F462E482E4C2F4D8B
:1027B800082101F021FA4FF48053236004E02368D4
:1027C8005A1E2260002B48D00221284601F0A4F9A5
:1027D8000028F4D025483946054601F099F94FF408
:1027E8008053236004E023685A1E2260002B35D0F2
:1027F8000121284601F090F90028F4D01B4807462B
:1028080001F088F94FF480533578236003E023689A
:102818005A1E22601BB30221384601F07DF90028B8
:10282800F5D012482946054601F072F94FF4805355
:10283800236003E023685A1E22608BB101212846D9
:1028480001F06AF90028F5D0084801F063F9082179
:102858000448BDE8F84001F0CDB9FEE7FEE7FEE721
:10286800FEE700BF001000481C01002000300140B6
:102878002DE9F04788B00646002701214FF4805023
:102888008DF802708DF8037000F0C4FE01214FF43A
:10289800003000F0B3FE01214FF4001000F0AEFE4E
:1028A80001214FF4001000F0A9FE01214FF400109F
:1028B80000F0A4FE052211464FF0904008AC01F04C
:1028C8009DF9052206214FF0904001F097F9202547
:1028D800052207214FF0904001F090F944F81C5D63
:1028E80040F2023321464FF09040DFF814910293F2
:1028F80001F018F9214680234FF09040019301F030
:1029080011F9214640234FF09040019301F00AF954
:10291800484601F067F84FF4E0624FF40073102165
:102928004846ADF81020ADF8163007224FF48273F0
:10293800ADF8181003A9ADF81C20DFF8C880ADF871
:102948000E30ADF80C70ADF81270ADF81470ADF82B
:102958001A7001F07DF848464FF4805101F0CCF828
:102968004846012101F0BAF84FF0080A032321462E
:1029780040464FF001098DF809308DF80A70CDF8FE
:1029880004A08DF8089001F0CDF85146404601F0BA
:1029980031F9214640464FF440730293CDF8049034
:1029A80001F0C0F8214640460223019301F0BAF82D
:1029B800337896F801809DF802C096F805E03279E0
:1029C8009DF80310B778B079F47843EA080343EA2E
:1029D8000C0342EA0E023B430A43024323432946BF
:1029E8000DF102008DF802308DF80320FFF7DAFEB2
:1029F80023210DF10300FFF7D5FE08B0BDE8F087ED
:102A08000030014000100048012A2DE9F8430E4625
:102A1800074688BF41F040063248334CDFF8CC8087
:102A28000821154601F0E8F84FF48053236004E0CC
:102A380023685A1E2260002B4FD00221404601F025
:102A48006BF80028F4D029483146064601F060F8B2
:102A58004FF48053236004E023685A1E2260002B41
:102A68003CD00121304601F057F80028F4D01F4827
:102A780001F050F85DB3013D1C4E17FA85F54FF48F
:102A88008058013F17F8019FC4F8008003E02368CD
:102A98005A1E22601BB30221304601F03DF800287F
:102AA800F5D04946304601F033F8C4F8008003E019
:102AB80023685A1E22609BB10121304601F02CF890
:102AC8000028F5D0304601F025F8AF42DAD10821C8
:102AD8000448BDE8F84301F08DB8FEE7FEE7FEE7DD
:102AE800FEE700BF001000481C0100200030014034
:102AF800012A2DE9F0418CBF41F0C00641F0800663
:102B0800074608213148324CDFF8C880154601F0E5
:102B180073F84FF48053236004E023685A1E226040
:102B2800002B4FD00221404600F0F6FF0028F4D0D9
:102B380028483146064600F0EBFF4FF480532360E7
:102B480004E023685A1E2260002B3CD00121304645
:102B580000F0E2FF0028F4D01E4800F0DBFF5DB370
:102B6800013DADB201351B4E3D444FF48058C4F8C9
:102B7800008003E023685A1E22602BB302213046EE
:102B880000F0CAFF0028F5D00021304600F0C0FF51
:102B9800C4F8008003E023685A1E2260ABB101210B
:102BA800304600F0B9FF0028F5D0304600F0B2FFFB
:102BB80007F8010BAF42DAD108210448BDE8F0411B
:102BC80001F018B8FEE7FEE7FEE7FEE70010004850
:102BD8001C0100200030014010B50B4B82B00446A8
:102BE800012153F8200000F009FD084B084A53F86A
:102BF800240032F81420074B00926946019300F034
:102C080091FF02B010BD00BFC05800082401002089
:102C1800E058000801030001034B044A53F8203030
:102C280032F810209A61704724010020E05800080B
:102C3800034B044A53F8203032F810201A857047A5
:102C480024010020E058000830B5044687B00D463E
:102C58004FF40030012100F0D1FC0121084600F0BA
:102C6800D9FC06A9134B012253F8240041F8102D72
:102C780000248DF80C408DF80F4000F053FF012D13
:102C880001D007B030BD2146204600F057FE08238A
:102C980004A88DF8153004948DF814408DF816505A
:102CA80000F0F2F906A8044B40F8143D00F068FE65
:102CB80007B030BD20010020060F0F0108B5034BF7
:102CC800012153F8200000F08FFF08BD20010020EB
:102CD8002DE9F0413E4C3F4E4FF4204382B005466B
:102CE80088461746236004E023685A1E2260002B9A
:102CF80068D04FF40041304600F0D2FA0028F3D1F2
:102D08004FF4005333480093ADB24FF08073294617
:102D18000122064600F0ACFA4FF42043236004E099
:102D280023685A1E2260002B4DD00221304600F045
:102D3800B7FA0028F4D027484146064600F0AAFA18
:102D48004FF42043236004E023685A1E2260002BBE
:102D58003AD08021304600F0A3FA0028F4D00023AE
:102D68001C48009329464FF000730122054600F0E5
:102D78007FFA4FF42043236003E023685A1E226041
:102D88001BB30221284600F08BFA0028F5D0114821
:102D98003978054600F07EFA4FF42043236003E0BB
:102DA80023685A1E22608BB12021284600F078FA49
:102DB8000028F5D02021074800F078FA002002B05A
:102DC800BDE8F081FEE7FEE7FEE7FEE7FEE700BFAD
:102DD8004401002000540040F0B590F805E0037964
:102DE800877946780478C578817843EA0E0383B0FA
:102DF8003B4334432B430DF106020C433220202180
:102E08008DF807308DF80640FFF762FF0DF10702D5
:102E180023213220FFF75CFF03B0F0BD30B54178C5
:102E28000378C578847883B00B430DF1050200213F
:102E38003C208DF805308DF806508DF80740FFF7D7
:102E480047FF0DF1060201213C20FFF741FF0DF17C
:102E5800070202213C20FFF73BFF03B030BD00BF53
:102E68002DE9F043454CDFF818914FF4204E83B01C
:102E78000746884616461D46C4F800E004E0236865
:102E88005A1E2260002B6DD04FF40041484600F0D6
:102E980007FA0028F3D103464FF40052384800924D
:102EA800BFB239460122814600F0E2F94FF42043CF
:102EB800236004E023685A1E2260002B53D00221AD
:102EC800484600F0EDF90028F4D0012D88BF48F0FD
:102ED80080082B484146804600F0DCF94FF4204337
:102EE800236004E023685A1E2260002B3CD0402156
:102EF800404600F0D5F90028F4D04FF41053009361
:102F080039464FF00073EAB21D4800F0B1F9D5B167
:102F1800013DADB201351A4F35444FF42048C4F88D
:102F2800008003E023685A1E2260F3B1042138466A
:102F380000F0B6F90028F5D0384600F0ADF906F8EB
:102F4800010BAE42EBD14FF420430D4D23602021FD
:102F5800284600F0A5F948B923685A1E2260002BBC
:102F6800F5D1FEE7FEE7FEE7FEE7FEE7202104488D
:102F780000F09CF9002003B0BDE8F0834401002074
:102F8800005400402DE9F04301218DB04FF40010AA
:102F980000F04CFB01214FF4802000F02FFB0121B1
:102FA8004FF4001000F02AFB324D334EDFF8D48086
:102FB80001214FF4001000F021FB01214FF4001013
:102FC80000F01CFB2846042206210CAC00F016FE7B
:102FD80004222846072100F011FE402344F82C3D26
:102FE80028462146254B029300F09CFD8023284665
:102FF800214601934FF4407700F094FD04252146C3
:1030080030460195029700F08DFD2846022100F018
:1030180095FC0025022208234FF0010903A803921A
:103028008DF811308DF810508DF8129000F02CF8B2
:103038000CA9134B41F81C3D404608950695079589
:1030480009950A950B9500F0D1F84946404600F0DD
:10305800FDF82146304610230193029700F062FDE7
:10306800202321463046019300F05CFD0DB0BDE8F9
:10307800F08300BF0004004800100048020300026B
:103088000A021000005400408379F0B4002B54D099
:10309800016805793D4E3E4C21F01F0202F1804245
:1030A80002F582320123176801F01F0103FA01F1CA
:1030B80027EA01011160026822F01F0702F01F02CF
:1030C800B95903FA02F221EA0202BA5102683149F7
:1030D80005F1804522F01F0605F5823502F01F0232
:1030E800775903FA02F23A4372510268457922F09D
:1030F8001F0702F01F023E5903FA02F226EA0202F3
:103108003A51026822F01F0702F01F027E5803FAA4
:1031180002F226EA0202102D7A5021D0016805F148
:10312800804221F01F0002F5823201F01F0184580D
:103138008B4023438350F0BC70470379026803F146
:10314800804322F01F0403F5823302F01F02E15886
:10315800012000FA02F221EA0202E250F0BC7047B4
:10316800026822F01F0502F01F022E5903FA02F22C
:1031780032432A51026822F01F0002F01F0244580D
:10318800934023434350F0BC704700BF0404014000
:10319800080401400C04014000F01F01012320F045
:1031A8001F00024A8B408350704700BF140401403F
:1031B80008B50D4B98424FF001010AD04FF480003A
:1031C80000F04CFA00214FF48000BDE8084000F000
:1031D80045BA4FF4001000F041FA00214FF40010F6
:1031E800BDE8084000F03ABA00540040F0B4066860
:1031F8008C69154D91E88C0026F00106066006687A
:1032080043EA072335402B4322F0706203600261D2
:1032180005680A69CB684E69224345F00105002418
:1032280005608460C4608260816841F40041816007
:1032380002681A430260436823F0784323F400438A
:1032480033434360F0BC7047FFE0CF00036819B90F
:1032580023F001030360704743F0010303607047E4
:10326800436823F47F0343EA01414160704700BF8C
:1032780070B4039D4468064E2B43C1F309011943FA
:10328800344041EA02412143416070BC704700BFAD
:10329800009800FC81627047406AC0B2704700BF66
:1032A80083690B4214BF012000207047C161704739
:1032B800024B00221A701870704700BF02100240BB
:1032C80082B000230A4A019302E0B3F5A06F08D048
:1032D800136813F4003F019B03F101030193019B61
:1032E800F3D0034B1868C0F3404002B0704700BFEA
:1032F80000100240014B1860704700BF6000424256
:10330800034A536823F0030318435060704700BF13
:1033180000100240024B586800F00C00704700BFD4
:1033280000100240A54A536803F00C03042BF0B5C3
:1033380000F00A81082B00F0F380A14A026003B173
:1033480000239E4CDFF880C26168DFF880E2C1F399
:1033580003111CF80170FFB222FA07F14160656899
:10336800C5F302251CF8055021FA05F58560666845
:10337800C6F3C2261CF80660DFF840C2F6B2F14078
:10338800C160E46AC4F304143EF81440A4B214F013
:10339800100F0CBF1446B3FBF4F40461DCF82C40A6
:1033A800C4F344243EF81440DFF810E2A4B214F049
:1033B800100F0CBF1446B3FBF4F44461DEF830C0C0
:1033C8007F4C1CF0100F0CBFA4469446C0F818C0E0
:1033D800DEF830C01CF0200F18BF1446C461DEF8B8
:1033E8003040E40539D5934200F0B2800162DEF83E
:1033F80030300C46714B44621C6BA4077ED181624D
:103408006E4B196B11F4403F63D1C5626B4B196B5E
:1034180011F4402F48D10563684B196B11F4401F14
:1034280025D14563654B196B11F4400F3AD0196BE0
:1034380001F44001B1F5800F00F0AA801A6B02F484
:103448004002B2F5000F00F0B5801B6B03F4400397
:10345800B3F5400F00F09180F0BD0162DEF8304016
:10346800A40502D5934200F083800C46C2E7196B8D
:1034780001F44011B1F5801F00F08880196B01F448
:103488004011B1F5001F00F089801B6B03F4401355
:10349800B3F5401F04BF4A4B4363484B196B11F403
:1034A800400FC4D18563F0BD196B01F44021B1F51B
:1034B800802F69D0196B01F44021B1F5002F69D034
:1034C8001B6B03F44023B3F5402F04BF3C4B03634D
:1034D800A2E7196B01F44031B1F5803F52D0196B66
:1034E80001F44031B1F5003F60D01B6B03F4403369
:1034F800B3F5403F04BF324BC36287E7196B01F055
:10350800030101293CD0196B01F00301022949D0BC
:103518001B6B03F00303032B04BF294B83626FE784
:1035280053685168C3F38343C90303F102031BD5EE
:10353800D26A234902F00F020132B1FBF2F203FB17
:1035480002F303601A46FCE61D4A02600023F8E60F
:10355800B7427FF44BAF54000462DEF8303013F406
:10356800007F08BF0C4645E7164A02FB03F3E8E76D
:10357800B7427FF47AAF54003CE7114B8363F0BD48
:1035880082623DE7C26241E7026345E7426349E779
:103598008263F0BD4FF4004303633DE74FF40043FB
:1035A80043633FE74FF40043836229E74FF4004346
:1035B800C3622BE74FF400438363F0BD0010024061
:1035C80000127A0000093D00640100204801002033
:1035D800064A030F136B14BF23F0200323F01003D4
:1035E8001363024B1A6B10431863704700100240B4
:1035F800014B1860704700BFD8004242044A536923
:1036080019B923EA000050617047184350617047A8
:1036180000100240044A936919B923EA0000906136
:10362800704718439061704700100240044AD369FC
:1036380019B923EA0000D06170471843D061704778
:1036480000100240044AD36819B923EA0000D06088
:1036580070471843D060704700100240044A13694D
:1036680019B923EA000010617047184310617047C8
:1036780000100240430908D10F4B1B6800F01F00DF
:1036880023FA00F000F001007047012B0BD0042B47
:10369800094B0CBF5B685B6A00F01F0023FA00F05F
:1036A80000F001007047044B1B6A00F01F0023FA6A
:1036B80000F000F00100704700100240044B1A6946
:1036C800120603D50349044A59605A60704700BF7F
:1036D8000020024023016745AB89EFCD024A1369F8
:1036E80043F0800313617047002002403849CB68DB
:1036F80013F0010FCB6803D1DB0637D502207047E2
:10370800DB072BD44FF43023314AD168C90605D5DD
:10371800013B0220002B08BF05207047D2685207E2
:1037280019D4012B20D02A4A136943F002031361EC
:103738005061136943F040031361D36813F0010F1C
:10374800D36818D1DB063BD50220214A136923F040
:10375800020313617047013B0320DBE71D4BCA6876
:10376800D207D1D5013BFAD105207047CB6859075C
:10377800D9D503207047D90709D4D368DB06E3D429
:10378800D36813F0040F14BF03200420DDE7114BA6
:10379800D168C90709D4D168C90603F1FF3308D530
:1037A8000220002B08BF0520CFE7013BF0D1052000
:1037B800CBE7D26812F0040F14BF03200420F0E70F
:1037C800D36813F0040F0CBF04200320BDE700BF2B
:1037D80000200240FFFF0A0010B483B00023524CBF
:1037E8000193E36813F0010FE36806D1DB063DD5CA
:1037F800022003B05DF8044B7047DA072BD44FF46E
:103808003023494AD468E40605D5013B0220002B41
:1038180008BF0520EDE7D268520719D4012B20D044
:10382800414C22698BB242F0010222610380E368B5
:1038380013F0010FE3681ED1DB065DD502203A4A7A
:10384800136923F00103136103B05DF8044B70475B
:10385800013B0320DBE7354BE268D207D1D5013BBA
:10386800FAD1052003B05DF8044B7047E3685C07A4
:10387800D6D50320BDE7DB072BD44FF430232A4AE3
:10388800D468E40605D5013B0220002B08BF0520BB
:10389800D5E7D268520715D4012B18D00230019011
:1038A800019B214A090C1980D36813F0010FD368D2
:1038B80016D1DB06C2D4D36813F0040F0CBF042062
:1038C8000320BCE7013B0320DFE7013B1AD10520B9
:1038D800B5E7164BE268D207D1D5013BFAD1F6E736
:1038E800D9070ED4D368DB06A8D4D36813F0040F25
:1038F80014BF03200420A2E7E3685C07CED50320A9
:103908009DE70A4BD168CC07DFD4D168C90603F11B
:10391800FF3301D50220B8E7D26812F0040F14BFB4
:1039280003200420B1E700BF00200240FFFF0A0087
:10393800014BD860704700BF0020024001F0FC0333
:1039480003F1804303F5803301F0030110B49A6852
:1039580089000F248C4022EA04029A609A685DF874
:10396800044B00FA01F111439960704740F0BF60C1
:10397800024B40F40030D860704700BF00ED00E013
:10398800C3785BB9037815485A09203203F01F033E
:10399800012101FA03F340F82230704770B4104A4D
:1039A8000178D268857843780C4CD243C2F302225E
:1039B8000F20C2F1040620FA02F22A40B340134352
:1039C80060181B0101F01F0501224909DBB2AA405A
:1039D80080F8003344F8212070BC704700E100E013
:1039E80000ED00E008B5174B984212D0164B9842EC
:1039F8001BD0164B984200D008BD01214FF400405F
:103A0800FFF72CFE00214FF40040BDE80840FFF707
:103A180025BE01214FF48050FFF714FE00214FF41A
:103A28008050BDE80840FFF70DBE01214FF48040EB
:103A3800FFF714FE00214FF48040BDE80840FFF76F
:103A48000DBE00BF0030014000380040003C00407F
:103A58004B88B3F5827FF0B423D082888D880C8997
:103A68000F88CE8822F470621204120C2A438280D6
:103A780002884D8902F4415213433B4333432343A5
:103A88008C89CA892B43234313439BB20380838BBE
:103A98000A8A23F400631B041B0C8383F0BC028294
:103AA800704702880B88CF880E894C898D8902F46B
:103AB8004152134343F482733B4333432343CC893A
:103AC8008A882B4323439BB20380838823F4706343
:103AD8001B041B0C13438380D9E700BF038829B953
:103AE80023F040031B041B0C038070479BB243F078
:103AF80040030380704700BF838823F480531B046E
:103B08001B0C838083889BB219438180704700BF58
:103B180001737047007B70470389194214BF012065
:103B28000020704700222DE9F04713460F68012650
:103B38004FF0030E04E00133102B02F102022AD0E9
:103B480006FA03F434EA0705F5D10D7905F1FF3CCF
:103B5800BCF1010F0EFA02FC1FD96FEA0C0CD0F869
:103B68000080CC7908EA0C0CC0F800C0D0F800C07E
:103B7800954045EA0C050560C5680EFA02FC25EA81
:103B88000C05C560C568944001332C43102BC460F4
:103B980002F10202D4D1BDE8F087D0F808A091F86C
:103BA800059091F806800EFA02FC6FEA0C0C0AEAFE
:103BB8000C0AC0F808A0D0F808A009FA02F949EAE6
:103BC8000A09C0F80890B0F804901FFA89F929EAA0
:103BD80004048480B0F8049008FA03F444EA090461
:103BE800A4B28480BBE700BF038A194214BF012036
:103BF800002070478161704701857047CB0800EB52
:103C0800830001F0070110B4036A89000F248C4077
:103C180023EA04030362036A5DF8044B02FA01F124
:103C280019430162704700BF30B4074D074A084C7A
:103C3800084B09492A600225084815722360086064
:103C48001B6830BC184700BFAC0600208C0600205B
:103C5800840600202C000020A806002090000020E8
:103C680010B40649064C074A00204FF43F43206031
:103C78000B805DF8044B1360704700BFB00600204E
:103C8800445C0040405C004070B500F07F05284669
:103C98000E46144600F06EFDA4B201462246304698
:103CA80000F08AFE2846214600F080FD002070BD05
:103CB80070B500F07F0528460E4600F0A7FD0446C3
:103CC800284600F065FD22460146304600F088FE91
:103CD800204670BD08B538B1064B1B681B6898476D
:103CE800054B18680A3008BD034B1B6801221A826D
:103CF80008BD00BFA8060020AC06002008B538B1F2
:103D0800064B1B689B689847054B18680C3008BD24
:103D1800034B1B6801221A8208BD00BFA8060020B9
:103D2800AC06002008B51F4B002832D01E481A6880
:103D380000210180137813F07F0316D0012B27D0C0
:103D4800022B24D1527902F00F039B0003F1804328
:103D580003F5B84312061B681FD403F44053B3F5A8
:103D6800805F0ED1012303700BE0527A930654BF93
:103D78000378022351064CBF43F0010323F00103EB
:103D880003700A4B1B681B699847074808BD08461B
:103D980008BD1B6802221A8208BD03F03003102BED
:103DA800EFD1DFE7AC060020B4060020A80600200B
:103DB8002DE9F041244F3D682C8A2CB92E7A042E27
:103DC8002BD0AB8A042604E0AB8A9C428CBF022627
:103DD80004269C4228BF1C462046AB69984780466B
:103DE800002000F0C7FC22460146404600F0E4FDF2
:103DF8002146002000F0DAFC2B8A688A1349144A0D
:103E08001B1B2B82044430230B806C824FF44053DD
:103E18003D6813802E72BDE8F0810E4B1A78012A96
:103E280006D00A4B072610222E721A80BDE8F081B0
:103E3800094A0A481268054910FA82F252003020ED
:103E480014601C700880E5E7AC060020B806002066
:103E5800B6060020C8030020505C00400230002055
:103E680038B5304B1B68187810F07F0003D0022853
:103E780006D0022038BD5A7A22F020025A7238BD84
:103E88005A88002AF6D11A79002AF3D15879264D92
:103E980041B220F08000840004F1804404F5B84465
:103EA8002D7822680029B4BF02F0300202F4405293
:103EB800A842DED2002ADCD09B7A002BD9D0002978
:103EC80023680ADB03F44053B3F5805F12D0174B25
:103ED8001B685B699847002038BD03F03003102B3E
:103EE800F5D1C4B2204600F013FC2046302100F082
:103EF80091FBECE790B90E4B93F82C1000F064FCA2
:103F0800236823F4804323F070039BB283F4405367
:103F180043F4004343F080032360D8E700F0E6FB56
:103F2800EEE700BFAC0600205C000020A8060020D9
:103F38002C00002038B5214B214D18682D78427986
:103F480054B222F08002930003F1804303F5B84392
:103F5800002C1968B4BF01F0300101F44051AA42A5
:103F680001D3022038BD4288002AFAD10029F8D0AE
:103F7800827A002AF5D0002C1A6811DB22F48042DC
:103F880022F0700292B282F4805242F4004242F06F
:103F980080021A600B4B1B689B699847002038BD4C
:103FA80022F4E04222F0400292B282F0100242F47F
:103FB800004242F080021A60ECE700BFAC06002025
:103FC8005C000020A8060020054B1B685A8A10B127
:103FD80008681044704789888A1A1A82704700BF97
:103FE800AC060020F0B5A54EA54B34681B68227AB4
:103FF800092A83B039D0A34A12FA83F35B001D88DB
:104008006D0005F1804505F5C0452B7823706B7868
:104018006370A88800F00AFC60802889376800F07F
:1040280005FCB8803468AB89E380012222720BB3A7
:104038006078062800F0918000284BD1618800291B
:1040480000F0A380904D2B681B69984703283368BC
:1040580000F098801A8A4FF6FF718A4200F0928029
:10406800022847D108221A721CE0E3880122227232
:10407800002BDDD12378677813F07F0347D0012B1D
:1040880000F0CF80022B00F025817F4D2B68384649
:104098005B699847032800F05081346800284FD0A6
:1040A80008232372794B002093F82C1000F08CFB26
:1040B8003368187A082806D17549764B4FF480542E
:1040C80010220C801A80A0F10900B0FA80F0400993
:1040D80003B0F0BD08286AD123785B06B2D16E4BD5
:1040E800A36100206082984733681A8A4FF6FF71EF
:1040F8008A4247D0002AB5D093F90010002979DB0D
:1041080063494FF44050032208801A72CAE7092F06
:1041180000F0FB80052F00F0CB80032F00F0E38038
:10412800012FB2D1E378012BAFD1A388002BACD1FA
:10413800637A9B06A9D5FFF793FE0028A5D13468BA
:104148004F4B56491B68534A11FA83F35B00002012
:104158003021186006231180A3E723785D067FF4D9
:1041680071AFA378484D012B00F0E480022B00F0DA
:104178008280032B7FF467AF2B685B6A002BAFD17B
:10418800062060E709221A728CE7636823F47F43EC
:10419800B3F5003F7FF456AF207810F07F0040F071
:1041A800CF80A388002B7FF44DAF3D4B98E70A28BA
:1041B8007FF448AF237803F07F03012B7FF442AFED
:1041C800A37A002B3FF43EAF618800297FF43AAF11
:1041D80063682D4D23F47F43B3F5803F7FF433AFFD
:1041E8002B6860799B699847002840F0E68034681E
:1041F8002C4B75E7D98801910198824234D89142B5
:1042080040F2A4802049096891F82C0081B29142BB
:1042180040F2A180244A002010709982FFF7C8FD5F
:1042280040E70B2F7FF431AF174DE1782B686079A9
:104238009B69984733689A7A002A3FF427AF002889
:104248007FF424AF1A79002A7FF420AF9B78002BE3
:104258007FF41CAF154B1B68DB689847346862799C
:10426800E378E27223736BE7074A019912681982AF
:1042780092F82C10D1E72B681B6A7FE7AC06002068
:10428800505C004004300020840600202C000020F0
:10429800B6060020B8060020DD3C000802300020E9
:1042A8002D3D0008053D0008C8030020A806002091
:1042B80094F90330002BFFF6F3AEA378002B7FF4BC
:1042C800EFAEA388002B7FF4EBAEA37A002B3FF46C
:1042D80037AFE5E6012F3FF42EAF032F7FF4D5AEBD
:1042E800FFF728FE29E7E378012B7FF4CEAEA388F9
:1042F800002B7FF4CAAE637A314A43F02003126878
:104308006372D369984734681AE72E4AE37852787B
:104318009A42FFF4BAAEA278002A7FF4B6AEA28819
:10432800002A7FF4B2AE264AA37213685B689847E6
:10433800346805E72B68DB6920E734680923B0E6B1
:1043480001282DD0022811D000207BE61E4A1268D1
:1043580092F82C1061E792FBF0F400FB1422002A7B
:104368007FF45BAF194A0120107056E7607900F0BE
:104378000F02930003F18043010603F5B843114986
:104388001B6809784CBF03F0300303F440538A429A
:10439800DAD210F07000D7D1002B7FF406AF51E6C7
:1043A800094D60792B689B69984730B93468A37ABE
:1043B800002B7FF4FAAE607845E63368587842E619
:1043C800A80600205C00002084060020C803002006
:1043D800F8B5294C23681A7A022A26D0042A24D050
:1043E800062A18D00821254A1972002092F82C10A4
:1043F80000F0EAF92368187A082806D12049214BE9
:104408004FF4805410220C801A80A0F10900B0FAF1
:1044180080F04009F8BD5A78052A0BD01A4B1B6862
:104428009B68984723680821DDE7FFF7C1FC2368EC
:10443800197AD8E71A7812F07F02EFD1134993F866
:1044480003E00D7875B1124940F60F7748F28006FF
:104458000B6842EA06003B4001320343954241F8AB
:10446800043BF5D10B4B0C4A1B684EF080011160E0
:104478001B6A9847D2E700BFAC0600202C0000203A
:10448800B6060020B8060020840600205C00002044
:10449800005C0040A80600204C5C0040F8B53A4D8E
:1044A8002C68237A022B07D0042B05D0032B1CD0B1
:1044B800052B1AD0072B48D00823344A2372002032
:1044C80092F82C1000F080F92B68187A082806D189
:1044D8002F49304B4FF4805410220C801A80A0F1E1
:1044E8000900B0FA80F04009F8BDA369228ABBB17F
:1044F800002A31D0A68A964228BF164630469847E9
:10450800228A638A921B33440746228263820020F0
:1045180000F03EF932460146384600F061FA228A38
:10452800FAB11B4B00214FF4405208461A8000F0A4
:104538003DF9238AA28A17492C6830209A420880BC
:104548000CD99BB105232372B7E7134B1B68DB68B3
:1045580098472C680823B0E7A38A33B9032323724A
:10456800ABE7A38A2C68002BF8D00A490B4A0C4801
:1045780006232372126810FA82F2520000263020B5
:104588001660088099E700BFAC0600202C000020C8
:10459800B6060020B806002084060020505C0040C3
:1045A80002300020F0B40C4B1D787DB10B4900227D
:1045B80040F60F7748F280060B6842EA06043B4053
:1045C80001322343954241F8043BF5D1044B40F0B6
:1045D80080001860F0BC70475C000020005C004060
:1045E8004C5C0040704700BF4FF6F873014A034027
:1045F80013607047505C0040800000F1804000F577
:10460800B840036823F4EC4323F07003194389B2DC
:1046180001607047800000F1804000F5B840CA068C
:10462800036823F4E04323F040039BB248BF83F0C0
:1046380010038A0648BF83F0200343F4004343F085
:1046480080030360704700BF800000F1804000F5E0
:10465800B840CA04036823F4804323F070039BB274
:1046680048BF83F480538A0448BF83F4005343F45B
:10467800004343F080030360704700BF800000F1EF
:10468800804000F5B840036823F4E04323F040037A
:104698009BB283F0300343F4004343F0800303608C
:1046A800704700BF800000F1804000F5B840036803
:1046B80023F4804323F070039BB283F4405343F404
:1046C800004343F080030360704700BF800000F19F
:1046D800804000F5B84040F60F630268134043F489
:1046E800004343F080030360704700BF800000F17F
:1046F800804000F5B84003685B0408D5036840F6BD
:104708000F72134043F4404343F080030360704743
:10471800800000F1804000F5B84003685B0608D5CA
:10472800036840F60F72134043F4004343F0C0039C
:1047380003607047064B1B689BB203EBC00000F197
:10474800005000F54050490840004900016070479A
:10475800505C0040054A064B126892B202EBC0005A
:10476800034449085B00490019607047505C0040E9
:1047780004300020054B1B689BB203EBC00000F11E
:10478800005000F54050400000887047505C0040E1
:10479800044A054B126892B202EBC00003445B0066
:1047A80018887047505C004004300020044A054BCC
:1047B800126892B202EBC00003445B0019607047B4
:1047C800505C0040023000200E4A0F4B126892B233
:1047D80002EBC00003443E294FEA43030AD94A09C1
:1047E800C80604BF02F1FF3292B2920242F40042BC
:1047F8001A6070474A08C90748BF013292021A6016
:10480800704700BF505C004006300020054A064B48
:10481800126892B202EBC00003445B001868C0F350
:1048280009007047505C004006300020C3B2000AFF
:1048380040EA0320704700BF2DE9F04784B0002309
:10484800554EDFF86CA1DFF86C91544FADF80E307F
:10485800DAF80030524C534D534A99B21B044BF6C8
:10486800BF78318040F18C80338803F00F039900C2
:1048780001F1804101F5B84189F80030002B2ED1B3
:1048880023689BB22B802B8803F0300313802B887E
:1048980003F440532B80236803EA080383F400538E
:1048A80083F0200343F4004343F0800323603388FC
:1048B800D8063CD523689BB2ADF80E30BDF80E3053
:1048C800190560D4BDF80E301B04C1D523680192C8
:1048D80040F68F710B402360FFF7E0FD2FE00A6878
:1048E80092B2ADF80E20BDF80E20100414D4BDF815
:1048F8000E301A06ACD599F80020930003F18043D6
:1049080003F5B843013A196857F8220048F60F72C0
:104918000A401A6080479BE70A68244840F68F746B
:10492800013B224050F823300A609847DFE72368AC
:10493800019248F60F710B402360FFF749FD236889
:104948002988019A03EA08082B8811F4805F18BFA8
:1049580088F480589E04138848BF88F40058DD0600
:1049680013880F4A48BF88F010089C0648BF88F093
:10497800200848F4004848F080081FFA88F31360BC
:1049880004B0BDE8F0872368019240F68F710B40B0
:104998002360FFF727FBD2E778060020E00000201D
:1049A800005C0040B6060020B8060020FC0000208D
:1049B800445C004088060020013252100FD010B429
:1049C80001F1005101F540514900002330F8024B34
:1049D80021F8234001339A42F8D15DF8044B70471F
:1049E80001F10051013201F5405152104FEA4101E5
:1049F80005D051F8043B20F8023B013AF9D1704741
:104A0800002103E00A4B5B584350043109480A4B24
:104A180042189A42F6D3094A02E0002342F8043BBE
:104A2800074B9A42F9D3FDF7B5FDFCF729FF70470C
:104A3800F0580008000000207401002074010020D4
:104A4800BC060020FEE7000009022900010100E081
:104A5800FA09040000020300000009211101000105
:104A6800223C0007058103400001070501034000BF
:104A780080000000120100020000004033280100FD
:104A880000010102030100000600FF0901A1011550
:104A98000026FF0075088501953D09018202018500
:104AA8000295060901B20201850495070901B202BF
:104AB80001850895040901B20201850995370901A4
:104AC800B20201C004030904160354007200610015
:104AD80063006B0065007200200044004B0000007A
:104AE80020034F00630075006C0075007300200000
:104AF800560052002C00200049006E0063002E0072
:104B080019030008000000009903000800000000D5
:104B1800000000000000000000000000000000008D
:104B2800CD020008077F087F7F7F0538EC0500204D
:104B380050040020F40500205004002050040020F8
:104B4800500400203806002028050020000000003E
:104B5800000000000000000000000000000000004D
:104B6800000000000000000000000000000000003D
:104B78000000000C000C000C000C000C000C000CD9
:104B8800000C000C000C000C0000000C000C0000D5
:104B9800000000000000001B001B001B001B001B86
:104BA80000000000000000000000000000000000FD
:104BB8000000000000000000000080198019801922
:104BC8008019C07FC07F80190033C07FC07F003349
:104BD8000033003300330000000000000000001E16
:104BE800003F807580650074003C001E000780054A
:104BF800806580658075003F001E00040004000089
:104C08000000007000D840D8C0D880D900730006D2
:104C1800000C801BC036C066C046C006800300007A
:104C2800000000000000001E003F00330033003386
:104C3800001E000CC03CC066806380618063C03E7B
:104C4800801C0000000000000000000C000C000C9C
:104C5800000C000C00000000000000000000000034
:104C680000000000000000000000000080000001BB
:104C78000003000600060004000C000C000C000CE9
:104C8800000C000C00040006000600030001800070
:104C9800002000100018000C000C0004000600069C
:104CA80000060006000600060004000C000C0018B0
:104CB800001000200000000C002D003F001E0033F3
:104CC80000000000000000000000000000000000DC
:104CD8000000000000000000000000000000000CC0
:104CE800000C000C000CC0FFC0FF000C000C000CF6
:104CF800000C0000000000000000000000000000A0
:104D0800000000000000000000000000000000009B
:104D1800000000000000000C000C00040004000863
:104D2800000000000000000000000000000000007B
:104D38000000001E001E000000000000000000002F
:104D4800000000000000000000000000000000005B
:104D58000000000000000000000000000000000C3F
:104D6800000C000000000000000000030003000326
:104D78000006000600060006000C000C000C000CE3
:104D88000018001800180000000000000000001EB5
:104D9800003F0033806180618061806D806D80613B
:104DA800806180610033003F001E000000000000A9
:104DB80000000006000E001E003600260006000651
:104DC80000060006000600060006000600060000B1
:104DD800000000000000001E003F807380618061B9
:104DE800800100030006000C001800300060807F7E
:104DF800807F0000000000000000001C003E0063EF
:104E080000630003000E000E000380018001806132
:104E18008073003F001E0000000000000000000634
:104E2800000E000E001E001E00160036003600663A
:104E3800807F807F0006000600060000000000005A
:104E48000000007F007F006000600060006E007F4F
:104E580080638001800180618073003F001E000034
:104E6800000000000000001E003F803380610060E9
:104E7800006E007F80738061806180618033003FB5
:104E8800001E0000000000000000807F807F80017D
:104E98000003000300060006000C000C000C0008CC
:104EA8000018001800180000000000000000001E94
:104EB800003F8063806180610021001E003F8061A7
:104EC800806180618061003F001E000000000000DA
:104ED8000000001E003F0073806180618061807364
:104EE800803F801D800180610073003F001E00002C
:104EF8000000000000000000000000000000000C9E
:104F0800000C000000000000000000000000000C81
:104F1800000C00000000000000000000000000007D
:104F280000000000000C000C000000000000000061
:104F38000000000C000C0004000400080000000041
:104F48000000000080008003000E00380060003878
:104F5800000E800380000000000000000000000038
:104F680000000000000000000000807F807F00003B
:104F78000000807F807F000000000000000000002B
:104F88000000000000000000000000000040007069
:104F9800001C000780010007001C00700040000092
:104FA80000000000000000000000001F803FC071EA
:104FB800C060C000C00180030007000E000C000C98
:104FC8000000000C000C0000000000000000001EA3
:104FD800003F803180718063806F806D806D806F4D
:104FE800806700600032003E001C000000000000E6
:104FF8000000000E000E001B001B001B001B803170
:105008008031803F803F8031C060C060C060000058
:10501800000000000000007C007E00630063006365
:105028000063007E007E0063806180618063007F92
:10503800007E0000000000000000001E003F8031DC
:105048008061006000600060006000600060806156
:105058008031003F001E0000000000000000007CBE
:10506800007F00638063806180618061806180610E
:10507800806100630063007E007C00000000000087
:105088000000807F807F0060006000600060007F1B
:10509800007F0060006000600060807F807F00000B
:1050A800000000000000807F807F006000600060DA
:1050B8000060007F007F00600060006000600060AA
:1050C80000600000000000000000001E003F80316A
:1050D800806100600060006080638063806180613F
:1050E8008031803F001E0000000000000000806149
:1050F80080618061806180618061807F807F806164
:105108008061806180618061806100000000000032
:105118000000003F003F000C000C000C000C000CCD
:10512800000C000C000C000C000C003F003F0000BD
:1051380000000000000080018001800180018001E2
:105148008001800180018001806180618073003F5F
:10515800001E0000000000000000C06080610063C5
:1051680000660066006C0078007C006600660063DC
:1051780080618061C06000000000000000000060E5
:105188000060006000600060006000600060006017
:10519800006000600060807F807F000000000000E9
:1051A8000000C071C071C07BC07AC06AC06AC06E9E
:1051B800C064C060C060C060C060C060C060000003
:1051C800000000000000807180718079807980790A
:1051D800806D806D806D8065806780678067806383
:1051E80080630000000000000000001E003F003344
:1051F800806180618061806180618061806180619F
:105208000033003F001E0000000000000000007E88
:10521800007F80638061806180618063007F007EA1
:105228000060006000600060006000000000000096
:105238000000001E003F0033806180618061806152
:1052480080618061806580670033803F401E000078
:10525800000000000000007E007F806380618061A4
:105268008063007F007E0066006300638061806168
:10527800C0600000000000000000000E001F803128
:10528800803100300038001E000780038061806193
:105298008031003F001E0000000000000000C0FF39
:1052A800C0FF000C000C000C000C000C000C000CE3
:1052B800000C000C000C000C000C000000000000AA
:1052C80000008061806180618061806180618061AF
:1052D80080618061806180618073003F001E0000F2
:1052E800000000000000C060C060C06080318031F4
:1052F8008031001B001B001B001B000E000E000E5F
:1053080000040000000000000000C0C0C0C0C0C011
:10531800C0C0C0C0C0CC804C804C805E80528052DF
:105328008073806180610000000000000000C0C040
:10533800806080610033003B001E000C000C001EE2
:10534800001F003B80718061C0C0000000000000A9
:105358000000C0C08061806100330033001E001E61
:10536800000C000C000C000C000C000C000C0000E1
:10537800000000000000803F803F80010003000320
:105388000006000C000C0018001800300060807F38
:10539800807F000000000000000F000F000C000CD0
:1053A800000C000C000C000C000C000C000C000C95
:1053B800000C000C000C000C000F000F000000187F
:1053C80000180018000C000C000C000C0006000669
:1053D80000060006000300030003000000000000B0
:1053E800001E001E00060006000600060006000655
:1053F8000006000600060006000600060006000675
:10540800001E001E0000000C000C001E00120033DD
:10541800003380618061000000000000000000008F
:105428000000000000000000000000000000000074
:105438000000000000000000000000000000000064
:105448000000000000000000E0FF0000000000383D
:105458000018000C00000000000000000000000020
:105468000000000000000000000000000000000034
:1054780000000000000000000000001F803F806165
:105488008001801F803F80618063807FC03800007A
:105498000000000000000060006000600060006E16
:1054A800007F807380618061806180618073007F8C
:1054B800006E000000000000000000000000000076
:1054C8000000001E003F8073806100600060806102
:1054D8008073003F001E00000000000000008001F3
:1054E800800180018001801D803F80738061806120
:1054F800806180618073803F801D00000000000093
:1055080000000000000000000000001E003F0073C3
:105518008061807F807F00608071003F001E0000F6
:10552800000000000000C007C00F000C000C807FC6
:10553800807F000C000C000C000C000C000C000C10
:10554800000C000000000000000000000000000047
:10555800801D803F8073806180618061806180737D
:10556800803F801D80018063007F003E0000006056
:10557800006000600060006F807F807180618061E2
:1055880080618061806180618061000000000000AE
:1055980000000006000600000000003E003E000675
:1055A80000060006000600060006000600060000C9
:1055B800000000000006000600000000003E003E5B
:1055C80000060006000600060006000600060006A3
:1055D80000060046007E003C00000060006000609D
:1055E8000060806100630066006C007C00760063E8
:1055F80000638061C0600000000000000000003E01
:10560800003E00060006000600060006000600062A
:105618000006000600060006000600000000000064
:105628000000000000000000000080DDC0FFC0CEC8
:10563800C0CCC0CCC0CCC0CCC0CCC0CCC0CC00008E
:105648000000000000000000000000000000006FE3
:10565800807F80718061806180618061806180610C
:105668008061000000000000000000000000000051
:105678000000001E003F807380618061806180614E
:105688008073003F001E00000000000000000000C2
:1056980000000000006E007F80738061806180617F
:1056A80080618073007F006E0060006000600060B1
:1056B8000000000000000000801D803F80738061B2
:1056C8008061806180618073803F801D80018001DE
:1056D8008001800100000000000000000000006759
:1056E800803F00390030003000300030003000309A
:1056F8000030000000000000000000000000000072
:105708000000001E803F80610060007F803F8001B4
:105718008061007F001E0000000000000000000003
:10572800000800180018007F007F001800180018F3
:10573800001800180018801F800F000000000000EB
:1057480000000000000000000000806180618061AE
:1057580080618061806180618063807F803D00001E
:105768000000000000000000000000000000C06011
:10577800803180318031001B001B001B000E000EA1
:10578800000600000000000000000000000000000B
:10579800000080DD80DD80DD005500550055007774
:1057A8000077002200220000000000000000000036
:1057B800000000000000806100330033001E000C70
:1057C800000C001E00330033806100000000000060
:1057D800000000000000000080618061803100331B
:1057E8000033001B001B001B000E000E000E001CE7
:1057F800007C007000000000000000000000C07F76
:10580800C07F800100030006000C00180030C07F34
:10581800C07F00000000000080038007000600062B
:10582800000600060006000E001C001C000E000604
:105838000006000600060006800780030006000632
:105848000006000600060006000600060006000620
:105858000006000600060006000600060006000610
:105868000038003C000C000C000C000C000C000E72
:1058780000070007000E000C000C000C000C000CC8
:10588800003C00380000000000000000000000009C
:1058980000008038807F0047000000000000000002
:1058A800000000000000000054657374696E670012
:1058B80054656D703D0000000000200000002000CD
:1058C8000000200000002000000020000000200050
:1058D80000002000000020000002000100040080F9
:0858E800000800400010002040
:1058F0001A03330039004D004100490033005400C1
:10590000470051004B00330037000000504A0008A8
:10591000290000007C4A000812000000B1030008C2
:10592000D5030008D10400086102000865020008E0
:105930006103000889030008810400088D04000841
:10594000990400080000000040000000020100006F
:10595000904A00083C000000624A0008090000006C
:10596000CC4A000804000000E84A000820000000BB
:10597000D04A000816000000000000201A000000B5
:10598000ED4500083D020008ED450008ED45000822
:10599000ED450008ED450008ED450008ED4500081F
:1059A00055020008FF0000000B120000544B0008D5
:1059B000010064001027000000000000000000004B
:1059C000000001080D17264026170D0801000000F1
:1059D00025020008ED450008ED450008ED450008EA
:1059E000ED450008ED450008ED45000831020008CE
:1059F000ED450008ED450008ED450008ED450008BF
:105A0000ED450008ED450008010000000010000011
:105A10000000004800100048001000480010004836
:105A20000010004800100048001000480010004816
:105A30000010004800A00000000001000200040067
:105A4000060008000A000C00100020004000800042
:105A50000001000000000000010203040102030431
:045A60000607080924
:0400000508004A099C
:00000001FF
